{
  "contractName": "DHTStateTable",
  "abi": [
    {
      "inputs": [],
      "payable": false,
      "stateMutability": "nonpayable",
      "type": "constructor",
      "signature": "constructor"
    },
    {
      "anonymous": false,
      "inputs": [
        {
          "indexed": false,
          "name": "nodeAddress",
          "type": "address"
        },
        {
          "indexed": false,
          "name": "pubKey",
          "type": "bytes32"
        },
        {
          "indexed": false,
          "name": "certificate",
          "type": "bytes32"
        },
        {
          "indexed": false,
          "name": "ip",
          "type": "bytes32"
        },
        {
          "indexed": false,
          "name": "port",
          "type": "uint256"
        },
        {
          "indexed": false,
          "name": "nonce",
          "type": "uint256"
        },
        {
          "indexed": false,
          "name": "numNodes",
          "type": "uint256"
        }
      ],
      "name": "Onboard",
      "type": "event",
      "signature": "0xdfb851cffc58e1d5f9cd9ff58756f6040d7c2ecc59367601dc9be0aec897090d"
    },
    {
      "anonymous": false,
      "inputs": [
        {
          "indexed": false,
          "name": "nodeAddress",
          "type": "address"
        }
      ],
      "name": "SafeOffboard",
      "type": "event",
      "signature": "0x56da62cb14075047178cff31184be899129b83506fb0b1fe540a31b94fc2ec33"
    },
    {
      "anonymous": false,
      "inputs": [
        {
          "indexed": false,
          "name": "nodeAddress",
          "type": "address"
        }
      ],
      "name": "OffboardPoll",
      "type": "event",
      "signature": "0x0f6edb819eb25f1e80b8ac7d740ea1be6bd22ac0ed6f6551966ffb6e0eb92d72"
    },
    {
      "constant": false,
      "inputs": [
        {
          "name": "inputBytes",
          "type": "bytes"
        },
        {
          "name": "inputSig",
          "type": "bytes"
        }
      ],
      "name": "startOnboard",
      "outputs": [],
      "payable": true,
      "stateMutability": "payable",
      "type": "function",
      "signature": "0x99879ef8"
    },
    {
      "constant": false,
      "inputs": [],
      "name": "finalizeOnboard",
      "outputs": [],
      "payable": false,
      "stateMutability": "nonpayable",
      "type": "function",
      "signature": "0x94c9c8f5"
    },
    {
      "constant": false,
      "inputs": [],
      "name": "safeOffboard",
      "outputs": [],
      "payable": false,
      "stateMutability": "nonpayable",
      "type": "function",
      "signature": "0x65ac9b0a"
    },
    {
      "constant": false,
      "inputs": [
        {
          "name": "nodeAddress",
          "type": "address"
        }
      ],
      "name": "beginOffboardVote",
      "outputs": [],
      "payable": false,
      "stateMutability": "nonpayable",
      "type": "function",
      "signature": "0x3de4a2ec"
    },
    {
      "constant": false,
      "inputs": [
        {
          "name": "nodeAddress",
          "type": "address"
        },
        {
          "name": "remove",
          "type": "bool"
        }
      ],
      "name": "offboardVote",
      "outputs": [],
      "payable": false,
      "stateMutability": "nonpayable",
      "type": "function",
      "signature": "0x3fd53565"
    },
    {
      "constant": false,
      "inputs": [
        {
          "name": "nodeAddress",
          "type": "address"
        }
      ],
      "name": "finalizeOffboardVote",
      "outputs": [],
      "payable": false,
      "stateMutability": "nonpayable",
      "type": "function",
      "signature": "0xca523ce7"
    },
    {
      "constant": true,
      "inputs": [
        {
          "name": "nodeAddress",
          "type": "address"
        }
      ],
      "name": "getNodeState",
      "outputs": [
        {
          "name": "",
          "type": "address"
        },
        {
          "name": "",
          "type": "bytes32"
        },
        {
          "name": "",
          "type": "bytes32"
        },
        {
          "name": "",
          "type": "bytes32"
        },
        {
          "name": "",
          "type": "uint256"
        },
        {
          "name": "",
          "type": "uint256"
        },
        {
          "name": "",
          "type": "uint8"
        }
      ],
      "payable": false,
      "stateMutability": "view",
      "type": "function",
      "signature": "0x229bb823"
    },
    {
      "constant": true,
      "inputs": [
        {
          "name": "index",
          "type": "uint256"
        }
      ],
      "name": "getNodeAddressByIndex",
      "outputs": [
        {
          "name": "",
          "type": "address"
        }
      ],
      "payable": false,
      "stateMutability": "view",
      "type": "function",
      "signature": "0xe8263c40"
    },
    {
      "constant": true,
      "inputs": [],
      "name": "getNumNodes",
      "outputs": [
        {
          "name": "",
          "type": "uint256"
        }
      ],
      "payable": false,
      "stateMutability": "view",
      "type": "function",
      "signature": "0x62bc2ffa"
    }
  ],
  "bytecode": "0x608060405234801561001057600080fd5b506000808190555060006001819055506127106002819055506124e3806100386000396000f3fe608060405260043610610099576000357c0100000000000000000000000000000000000000000000000000000000900463ffffffff168063229bb8231461009e5780633de4a2ec146101675780633fd53565146101b857806362bc2ffa1461021557806365ac9b0a1461024057806394c9c8f51461025757806399879ef81461026e578063ca523ce7146103c0578063e8263c4014610411575b600080fd5b3480156100aa57600080fd5b506100ed600480360360208110156100c157600080fd5b81019080803573ffffffffffffffffffffffffffffffffffffffff16906020019092919050505061048c565b604051808873ffffffffffffffffffffffffffffffffffffffff1673ffffffffffffffffffffffffffffffffffffffff16815260200187815260200186815260200185815260200184815260200183815260200182600481111561014d57fe5b60ff16815260200197505050505050505060405180910390f35b34801561017357600080fd5b506101b66004803603602081101561018a57600080fd5b81019080803573ffffffffffffffffffffffffffffffffffffffff1690602001909291905050506106b2565b005b3480156101c457600080fd5b50610213600480360360408110156101db57600080fd5b81019080803573ffffffffffffffffffffffffffffffffffffffff1690602001909291908035151590602001909291905050506109f2565b005b34801561022157600080fd5b5061022a610b3c565b6040518082815260200191505060405180910390f35b34801561024c57600080fd5b50610255610b46565b005b34801561026357600080fd5b5061026c610cd4565b005b6103be6004803603604081101561028457600080fd5b81019080803590602001906401000000008111156102a157600080fd5b8201836020820111156102b357600080fd5b803590602001918460018302840111640100000000831117156102d557600080fd5b91908080601f016020809104026020016040519081016040528093929190818152602001838380828437600081840152601f19601f8201169050808301925050505050505091929192908035906020019064010000000081111561033857600080fd5b82018360208201111561034a57600080fd5b8035906020019184600183028401116401000000008311171561036c57600080fd5b91908080601f016020809104026020016040519081016040528093929190818152602001838380828437600081840152601f19601f82011690508083019250505050505050919291929050505061140e565b005b3480156103cc57600080fd5b5061040f600480360360208110156103e357600080fd5b81019080803573ffffffffffffffffffffffffffffffffffffffff169060200190929190505050611aba565b005b34801561041d57600080fd5b5061044a6004803603602081101561043457600080fd5b8101908080359060200190929190505050611c41565b604051808273ffffffffffffffffffffffffffffffffffffffff1673ffffffffffffffffffffffffffffffffffffffff16815260200191505060405180910390f35b6000806000806000806000600360008973ffffffffffffffffffffffffffffffffffffffff1673ffffffffffffffffffffffffffffffffffffffff16815260200190815260200160002060000160009054906101000a900473ffffffffffffffffffffffffffffffffffffffff16600360008a73ffffffffffffffffffffffffffffffffffffffff1673ffffffffffffffffffffffffffffffffffffffff16815260200190815260200160002060020154600360008b73ffffffffffffffffffffffffffffffffffffffff1673ffffffffffffffffffffffffffffffffffffffff16815260200190815260200160002060030154600360008c73ffffffffffffffffffffffffffffffffffffffff1673ffffffffffffffffffffffffffffffffffffffff16815260200190815260200160002060040154600360008d73ffffffffffffffffffffffffffffffffffffffff1673ffffffffffffffffffffffffffffffffffffffff16815260200190815260200160002060050154600360008e73ffffffffffffffffffffffffffffffffffffffff1673ffffffffffffffffffffffffffffffffffffffff16815260200190815260200160002060080154600360008f73ffffffffffffffffffffffffffffffffffffffff1673ffffffffffffffffffffffffffffffffffffffff168152602001908152602001600020600a0160009054906101000a900460ff169650965096509650965096509650919395979092949650565b33600260048111156106c057fe5b600360003373ffffffffffffffffffffffffffffffffffffffff1673ffffffffffffffffffffffffffffffffffffffff168152602001908152602001600020600a0160009054906101000a900460ff16600481111561071b57fe5b1415156107b6576040517f08c379a00000000000000000000000000000000000000000000000000000000081526004018080602001828103825260268152602001807f746865206e6f6465206973206e6f7420696e20746865206f6e626f617264656481526020017f207374617465000000000000000000000000000000000000000000000000000081525060400191505060405180910390fd5b81600260048111156107c457fe5b600360003373ffffffffffffffffffffffffffffffffffffffff1673ffffffffffffffffffffffffffffffffffffffff168152602001908152602001600020600a0160009054906101000a900460ff16600481111561081f57fe5b1415156108ba576040517f08c379a00000000000000000000000000000000000000000000000000000000081526004018080602001828103825260268152602001807f746865206e6f6465206973206e6f7420696e20746865206f6e626f617264656481526020017f207374617465000000000000000000000000000000000000000000000000000081525060400191505060405180910390fd5b6060604051908101604052808473ffffffffffffffffffffffffffffffffffffffff1681526020016000815260200142815250600560008573ffffffffffffffffffffffffffffffffffffffff1673ffffffffffffffffffffffffffffffffffffffff16815260200190815260200160002060008201518160000160006101000a81548173ffffffffffffffffffffffffffffffffffffffff021916908373ffffffffffffffffffffffffffffffffffffffff16021790555060208201518160010155604082015181600201559050507f0f6edb819eb25f1e80b8ac7d740ea1be6bd22ac0ed6f6551966ffb6e0eb92d7283604051808273ffffffffffffffffffffffffffffffffffffffff1673ffffffffffffffffffffffffffffffffffffffff16815260200191505060405180910390a1505050565b814262093a80600560008473ffffffffffffffffffffffffffffffffffffffff1673ffffffffffffffffffffffffffffffffffffffff168152602001908152602001600020600201540110151515610ad8576040517f08c379a000000000000000000000000000000000000000000000000000000000815260040180806020018281038252602d8152602001807f63616e6e6f7420766f7465206f6e63652074686520766f74696e67207065726981526020017f6f6420686173207061737365640000000000000000000000000000000000000081525060400191505060405180910390fd5b600115158215151415610b37576001600560008573ffffffffffffffffffffffffffffffffffffffff1673ffffffffffffffffffffffffffffffffffffffff168152602001908152602001600020600101600082825401925050819055505b505050565b6000600154905090565b60026004811115610b5357fe5b600360003373ffffffffffffffffffffffffffffffffffffffff1673ffffffffffffffffffffffffffffffffffffffff168152602001908152602001600020600a0160009054906101000a900460ff166004811115610bae57fe5b141515610bba57600080fd5b60038060003373ffffffffffffffffffffffffffffffffffffffff1673ffffffffffffffffffffffffffffffffffffffff168152602001908152602001600020600a0160006101000a81548160ff02191690836004811115610c1857fe5b02179055507f56da62cb14075047178cff31184be899129b83506fb0b1fe540a31b94fc2ec3333604051808273ffffffffffffffffffffffffffffffffffffffff1673ffffffffffffffffffffffffffffffffffffffff16815260200191505060405180910390a1610c8933611c7e565b3373ffffffffffffffffffffffffffffffffffffffff166108fc6002549081150290604051600060405180830381858888f19350505050158015610cd1573d6000803e3d6000fd5b50565b60016004811115610ce157fe5b600360003373ffffffffffffffffffffffffffffffffffffffff1673ffffffffffffffffffffffffffffffffffffffff168152602001908152602001600020600a0160009054906101000a900460ff166004811115610d3c57fe5b141515610dd7576040517f08c379a000000000000000000000000000000000000000000000000000000000815260040180806020018281038252603f8152602001807f63616e6e6f742066696e616c697a65206f6e626f617264696e67206f6620612081526020017f6e6f6465207468617420697320696e207468652077726f6e672073746174650081525060400191505060405180910390fd5b436005600360003373ffffffffffffffffffffffffffffffffffffffff1673ffffffffffffffffffffffffffffffffffffffff168152602001908152602001600020600901540111151515610eba576040517f08c379a00000000000000000000000000000000000000000000000000000000081526004018080602001828103825260358152602001807f63616e6e6f742066696e616c697a65206f6e626f617264696e6720756e74696c81526020017f203520626c6f636b73206861766520706173736564000000000000000000000081525060400191505060405180910390fd5b600060024340600360003373ffffffffffffffffffffffffffffffffffffffff1673ffffffffffffffffffffffffffffffffffffffff1681526020019081526020016000206007015460405160200180838152602001828152602001925050506040516020818303038152906040526040518082805190602001908083835b602083101515610f5e5780518252602082019150602081019050602083039250610f39565b6001836020036101000a038019825116818451168082178552505050505050905001915050602060405180830381855afa158015610fa0573d6000803e3d6000fd5b5050506040513d6020811015610fb557600080fd5b810190808051906020019092919050505090506002600360003373ffffffffffffffffffffffffffffffffffffffff1673ffffffffffffffffffffffffffffffffffffffff168152602001908152602001600020600601548260405160200180838152602001828152602001925050506040516020818303038152906040526040518082805190602001908083835b6020831015156110695780518252602082019150602081019050602083039250611044565b6001836020036101000a038019825116818451168082178552505050505050905001915050602060405180830381855afa1580156110ab573d6000803e3d6000fd5b5050506040513d60208110156110c057600080fd5b810190808051906020019092919050505060019004600360003373ffffffffffffffffffffffffffffffffffffffff1673ffffffffffffffffffffffffffffffffffffffff16815260200190815260200160002060080181905550600154600360003373ffffffffffffffffffffffffffffffffffffffff1673ffffffffffffffffffffffffffffffffffffffff168152602001908152602001600020600101819055506002600360003373ffffffffffffffffffffffffffffffffffffffff1673ffffffffffffffffffffffffffffffffffffffff168152602001908152602001600020600a0160006101000a81548160ff021916908360048111156111c357fe5b02179055503360046000600154815260200190815260200160002060006101000a81548173ffffffffffffffffffffffffffffffffffffffff021916908373ffffffffffffffffffffffffffffffffffffffff1602179055507fdfb851cffc58e1d5f9cd9ff58756f6040d7c2ecc59367601dc9be0aec897090d33600360003373ffffffffffffffffffffffffffffffffffffffff1673ffffffffffffffffffffffffffffffffffffffff16815260200190815260200160002060020154600360003373ffffffffffffffffffffffffffffffffffffffff1673ffffffffffffffffffffffffffffffffffffffff16815260200190815260200160002060030154600360003373ffffffffffffffffffffffffffffffffffffffff1673ffffffffffffffffffffffffffffffffffffffff16815260200190815260200160002060040154600360003373ffffffffffffffffffffffffffffffffffffffff1673ffffffffffffffffffffffffffffffffffffffff16815260200190815260200160002060050154600360003373ffffffffffffffffffffffffffffffffffffffff1673ffffffffffffffffffffffffffffffffffffffff16815260200190815260200160002060080154600154604051808873ffffffffffffffffffffffffffffffffffffffff1673ffffffffffffffffffffffffffffffffffffffff16815260200187815260200186815260200185815260200184815260200183815260200182815260200197505050505050505060405180910390a16001806000828254019250508190555050565b6000600481111561141b57fe5b600360003373ffffffffffffffffffffffffffffffffffffffff1673ffffffffffffffffffffffffffffffffffffffff168152602001908152602001600020600a0160009054906101000a900460ff16600481111561147657fe5b141515611511576040517f08c379a00000000000000000000000000000000000000000000000000000000081526004018080602001828103825260308152602001807f63616e6e6f74206f6e626f6172642061206e6f6465207468617420697320616c81526020017f726561647920696e20746865204448540000000000000000000000000000000081525060400191505060405180910390fd5b60025434101515156115b1576040517f08c379a00000000000000000000000000000000000000000000000000000000081526004018080602001828103825260258152602001807f63616e6e6f74206f6e626f617264207769746820696e73756666696369656e7481526020017f20626f6e6400000000000000000000000000000000000000000000000000000081525060400191505060405180910390fd5b6000828051906020012090506115d08282611ed790919063ffffffff16565b73ffffffffffffffffffffffffffffffffffffffff163373ffffffffffffffffffffffffffffffffffffffff16141515611672576040517f08c379a000000000000000000000000000000000000000000000000000000000815260040180806020018281038252601d8152602001807f696e76616c6964206365727469666963617465207369676e617475726500000081525060200191505060405180910390fd5b60606116856116808561200c565b61203a565b905060006116b26116ad83600081518110151561169e57fe5b90602001906020020151612117565b6121a5565b905060006116df6116da8460018151811015156116cb57fe5b90602001906020020151612117565b6121a5565b9050600061170c6117078560028151811015156116f857fe5b90602001906020020151612117565b6121a5565b9050600061173185600381518110151561172257fe5b906020019060200201516121c9565b9050610160604051908101604052803373ffffffffffffffffffffffffffffffffffffffff1681526020016000815260200185815260200184815260200183815260200182815260200160028685856040516020018084815260200183815260200182815260200193505050506040516020818303038152906040526040518082805190602001908083835b6020831015156117e257805182526020820191506020810190506020830392506117bd565b6001836020036101000a038019825116818451168082178552505050505050905001915050602060405180830381855afa158015611824573d6000803e3d6000fd5b5050506040513d602081101561183957600080fd5b810190808051906020019092919050505081526020016002434060005460405160200180838152602001828152602001925050506040516020818303038152906040526040518082805190602001908083835b6020831015156118b1578051825260208201915060208101905060208303925061188c565b6001836020036101000a038019825116818451168082178552505050505050905001915050602060405180830381855afa1580156118f3573d6000803e3d6000fd5b5050506040513d602081101561190857600080fd5b81019080805190602001909291905050508152602001600081526020014381526020016001600481111561193857fe5b815250600360003373ffffffffffffffffffffffffffffffffffffffff1673ffffffffffffffffffffffffffffffffffffffff16815260200190815260200160002060008201518160000160006101000a81548173ffffffffffffffffffffffffffffffffffffffff021916908373ffffffffffffffffffffffffffffffffffffffff1602179055506020820151816001015560408201518160020155606082015181600301556080820151816004015560a0820151816005015560c0820151816006015560e082015181600701556101008201518160080155610120820151816009015561014082015181600a0160006101000a81548160ff02191690836004811115611a4257fe5b021790555090505060016000808282540192505081905550600254341115611ab0573373ffffffffffffffffffffffffffffffffffffffff166108fc60025434039081150290604051600060405180830381858888f19350505050158015611aae573d6000803e3d6000fd5b505b5050505050505050565b4262093a80600560008473ffffffffffffffffffffffffffffffffffffffff1673ffffffffffffffffffffffffffffffffffffffff1681526020019081526020016000206002015401101515611b78576040517f08c379a000000000000000000000000000000000000000000000000000000000815260040180806020018281038252601b8152602001807f54686520706f6c6c206973207374696c6c206f63637572696e672e000000000081525060200191505060405180910390fd5b6002600154811515611b8657fe5b04600560008373ffffffffffffffffffffffffffffffffffffffff1673ffffffffffffffffffffffffffffffffffffffff168152602001908152602001600020600101541115611c3e576004600360008373ffffffffffffffffffffffffffffffffffffffff1673ffffffffffffffffffffffffffffffffffffffff168152602001908152602001600020600a0160006101000a81548160ff02191690836004811115611c2f57fe5b0217905550611c3d81611c7e565b5b50565b60006004600083815260200190815260200160002060009054906101000a900473ffffffffffffffffffffffffffffffffffffffff169050919050565b6000600360008373ffffffffffffffffffffffffffffffffffffffff1673ffffffffffffffffffffffffffffffffffffffff16815260200190815260200160002060010154905060015481101515611d3e576040517f08c379a00000000000000000000000000000000000000000000000000000000081526004018080602001828103825260198152602001807f736f6d657468696e672069732073757065722077726f6e672e0000000000000081525060200191505060405180910390fd5b6001805403811415611d85576004600082815260200190815260200160002060006101000a81549073ffffffffffffffffffffffffffffffffffffffff0219169055611ec3565b600460006001805403815260200190815260200160002060009054906101000a900473ffffffffffffffffffffffffffffffffffffffff166004600083815260200190815260200160002060006101000a81548173ffffffffffffffffffffffffffffffffffffffff021916908373ffffffffffffffffffffffffffffffffffffffff160217905550600460006001805403815260200190815260200160002060006101000a81549073ffffffffffffffffffffffffffffffffffffffff021916905580600360006004600085815260200190815260200160002060009054906101000a900473ffffffffffffffffffffffffffffffffffffffff1673ffffffffffffffffffffffffffffffffffffffff1673ffffffffffffffffffffffffffffffffffffffff168152602001908152602001600020600101819055505b600180600082825403925050819055505050565b6000806000808560405160200180807f19457468657265756d205369676e6564204d6573736167653a0a333200000000815250601c0182815260200191505060405160208183030381529060405280519060200120955060418551141515611f455760009350505050612006565b6020850151925060408501519150606085015160001a9050601b8160ff161015611f7057601b810190505b601b8160ff1614158015611f885750601c8160ff1614155b15611f995760009350505050612006565b60018682858560405160008152602001604052604051808581526020018460ff1660ff1681526020018381526020018281526020019450505050506020604051602081039080840390855afa158015611ff6573d6000803e3d6000fd5b5050506020604051035193505050505b92915050565b612014612483565b600060208301905060408051908101604052808451815260200182815250915050919050565b60606120458261221f565b151561205057600080fd5b600061205b8361226d565b90508060405190808252806020026020018201604052801561209757816020015b61208461249d565b81526020019060019003908161207c5790505b50915060006120a984602001516122de565b8460200151019050600080600090505b8381101561210e576120ca83612367565b915060408051908101604052808381526020018481525085828151811015156120ef57fe5b90602001906020020181905250818301925080806001019150506120b9565b50505050919050565b60606000826000015111151561212c57600080fd5b600061213b83602001516122de565b905060008184600001510390506060816040519080825280601f01601f19166020018201604052801561217d5781602001600182028038833980820191505090505b509050600081602001905061219984876020015101828561241a565b81945050505050919050565b600080825114156121bc57600060010290506121c4565b602082015190505b919050565b60008082600001511115156121dd57600080fd5b60006121ec83602001516122de565b9050600081846000015103905060008285602001510190506000826020036101000a825104905080945050505050919050565b600080826000015114156122365760009050612268565b60008083602001519050805160001a915060c060ff168260ff16101561226157600092505050612268565b6001925050505b919050565b6000808260000151141561228457600090506122d9565b6000809050600061229884602001516122de565b84602001510190506000846000015185602001510190505b808210156122d2576122c182612367565b8201915082806001019350506122b0565b8293505050505b919050565b600080825160001a9050608060ff168110156122fe576000915050612362565b60b860ff16811080612323575060c060ff168110158015612322575060f860ff1681105b5b15612332576001915050612362565b60c060ff168110156123525760018060b80360ff16820301915050612362565b60018060f80360ff168203019150505b919050565b600080825160001a9050608060ff16811015612387576001915050612415565b60b860ff168110156123a5576001608060ff16820301915050612415565b60c060ff168110156123d55760b78103600184019350806020036101000a84510460018201810193505050612413565b60f860ff168110156123f357600160c060ff16820301915050612415565b60f78103600184019350806020036101000a845104600182018101935050505b505b919050565b60008114156124285761247e565b5b602060ff168110151561245a5782518252602060ff1683019250602060ff1682019150602060ff1681039050612429565b6000600182602060ff16036101000a03905080198451168184511681811785525050505b505050565b604080519081016040528060008152602001600081525090565b60408051908101604052806000815260200160008152509056fea165627a7a72305820cfcda46cf69e76b529e1e530afb728b35a9ec841e7e01d6b18e739bce8b4e9060029",
  "source": "pragma solidity ^0.5.0;\n\nimport \"solidity-rlp/contracts/RLPReader.sol\";\n\nimport \"./libraries/ECDSA.sol\";\n\ncontract DHTStateTable {\n    using ECDSA for bytes32;\n    using RLPReader for bytes;\n    using RLPReader for RLPReader.RLPItem;\n\n    uint256 gtc;\n    uint256 numNodes;\n    uint256 minBond;\n\n    enum NodeState {NonExistent, OnboardPending, Onboarded, Offboarded, Banned}\n\n    event Onboard(address nodeAddress, bytes32 pubKey, bytes32 certificate, bytes32 ip, uint256 port, uint256 nonce, uint256 numNodes);\n    event SafeOffboard(address nodeAddress);\n    event OffboardPoll(address nodeAddress);\n\n    struct node {\n        address addr;\n        uint256 nodeIndex;\n\n        bytes32 pubKey;\n        bytes32 certificate;\n        bytes32 ip;\n        uint256 port;\n\n        bytes32 h1;\n        bytes32 seed;\n        uint256 nonce;\n\n        uint creationBlock;\n\n        NodeState state;\n    }\n    mapping(address => node) nodes;\n    mapping(uint256 => address) nodeIndexes;\n\n    struct offBoardPoll {\n        address nodeAddress;\n        uint256 numVotesForRemove;\n\n        uint256 createdAt;\n    }\n    mapping(address => offBoardPoll) polls;\n\n    // A node can be begin onboarding only if it DNE\n    modifier canStartOnboard() {\n        require(nodes[msg.sender].state == NodeState.NonExistent, \"cannot onboard a node that is already in the DHT\");\n        require(msg.value >= minBond, \"cannot onboard with insufficient bond\");\n        _;\n    }\n\n    // A node can be onboarded only after 5 blocks.\n    modifier canFinalizeOnboard() {\n        require(nodes[msg.sender].state == NodeState.OnboardPending, \"cannot finalize onboarding of a node that is in the wrong state\");\n        require(nodes[msg.sender].creationBlock + 5 <= block.number, \"cannot finalize onboarding until 5 blocks have passed\");\n        _;\n    }\n\n    // If a node is Onboarded\n    modifier isOnboarded(address nodeAddress) {\n        require(nodes[msg.sender].state == NodeState.Onboarded, \"the node is not in the onboarded state\");\n        _;\n    }\n\n    // If a poll is still occuring\n    modifier canVote(address nodeAddress) {\n        require(polls[nodeAddress].createdAt + 1 weeks >= block.timestamp, \"cannot vote once the voting period has passed\");\n        _;\n    }\n\n    // Contract constructor.\n    constructor()\n        public\n    {\n        gtc = 0;\n        numNodes = 0;\n        minBond = 10000;\n    }\n\n    function bytesToBytes32(bytes memory source) internal pure returns (bytes32 result) {\n        if (source.length == 0) {\n            return 0x0;\n        }\n\n        assembly {\n            result := mload(add(source, 32))\n        }\n    }\n\n    // Begin the onboarding process.\n    // @param pubKey            node's public key\n    // @param certificate       certificate proving ownership of the public key\n    // @param ip                node's ip address\n    // @param port              node's port number\n    function startOnboard(bytes memory inputBytes, bytes memory inputSig)\n        canStartOnboard\n        payable\n        public\n    {\n        // Verify the input signature was signed by the caller\n        bytes32 inputHash = keccak256(inputBytes);\n        require(msg.sender == inputHash.recover(inputSig), \"invalid certificate signature\");\n\n        // Decode the inputs\n        RLPReader.RLPItem[] memory inputs = inputBytes.toRlpItem().toList();\n        bytes32 pubKey = bytesToBytes32(inputs[0].toBytes());\n        bytes32 certificate = bytesToBytes32(inputs[1].toBytes());\n        bytes32 ip = bytesToBytes32(inputs[2].toBytes());\n        uint256 port = inputs[3].toUint();\n\n        nodes[msg.sender] = node({\n            addr: msg.sender,\n            nodeIndex: 0,\n\n            pubKey: pubKey,\n            certificate: certificate,\n            ip: ip,\n            port: port,\n\n            h1: sha256(abi.encodePacked(pubKey, ip, port)),\n            seed: sha256(abi.encodePacked(blockhash(block.number), gtc)),\n            nonce: 0,\n\n            creationBlock: block.number,\n\n            state: NodeState.OnboardPending\n        });\n        gtc += 1;\n\n        if (msg.value > minBond) {\n            msg.sender.transfer(msg.value - minBond);\n        }\n    }\n\n    // Finalize the onboarding process, where the node is assigned a nonce and a shard.\n    // Finalization occurs 5 blocks after onboarding begins to prevent the predictability of pseudorandom nonce generation.\n    function finalizeOnboard()\n        canFinalizeOnboard\n        public\n    {\n        bytes32 rng = sha256(abi.encodePacked(blockhash(block.number), nodes[msg.sender].seed));\n        nodes[msg.sender].nonce = uint256(sha256(abi.encodePacked(nodes[msg.sender].h1, rng)));\n        nodes[msg.sender].nodeIndex = numNodes;\n        nodes[msg.sender].state = NodeState.Onboarded;\n\n        nodeIndexes[numNodes] = msg.sender;\n\n        emit Onboard(msg.sender, nodes[msg.sender].pubKey, nodes[msg.sender].certificate, nodes[msg.sender].ip, nodes[msg.sender].port, nodes[msg.sender].nonce, numNodes);\n        numNodes += 1;\n    }\n\n    // Remove a node from nodeIndexes and reassign indexes if need be\n    function removeNode(address nodeAddress)\n        private\n    {\n        uint256 index = nodes[nodeAddress].nodeIndex;\n\n        require(index < numNodes, \"something is super wrong.\");\n\n        if (index == numNodes - 1) {\n            delete nodeIndexes[index];\n        } else {\n            nodeIndexes[index] = nodeIndexes[numNodes - 1];\n            delete nodeIndexes[numNodes - 1];\n\n            nodes[nodeIndexes[index]].nodeIndex = index;\n        }\n\n        numNodes -= 1;\n    }\n\n    // A node can safely off board itself.\n    function safeOffboard()\n        public\n    {\n        require(nodes[msg.sender].state == NodeState.Onboarded);\n        nodes[msg.sender].state = NodeState.Offboarded;\n        emit SafeOffboard(msg.sender);\n\n        removeNode(msg.sender);\n\n        msg.sender.transfer(minBond);\n    }\n\n    // Begin the voting process to forcibly remove a node from the DHT.\n    // Only other nodes can begin this process.\n    // @param node             the node to be offboarded.\n    function beginOffboardVote(address nodeAddress)\n        isOnboarded(msg.sender)\n        isOnboarded(nodeAddress)\n        public\n    {\n        polls[nodeAddress] = offBoardPoll({\n            nodeAddress: nodeAddress,\n            numVotesForRemove: 0,\n            createdAt: block.timestamp\n        });\n\n        emit OffboardPoll(nodeAddress);\n    }\n\n    // Nodes can vote to forcibly remove a node from the DHT within a week.\n    // @param node             the node to be offboarded\n    // @param remove           whether this node should be forcibly removed\n    function offboardVote(address nodeAddress, bool remove)\n        canVote(nodeAddress)\n        public\n    {\n        if (remove == true) {\n            polls[nodeAddress].numVotesForRemove += 1;\n        }\n    }\n\n    // Finalize the voting process to forcibly remove a node from the DHT.\n    // The node will be forcibly removed from the DHT if enough votes are placed.\n    // @param node             the node to be offboarded.\n    function finalizeOffboardVote(address nodeAddress) public\n    {\n        require(polls[nodeAddress].createdAt + 1 weeks < block.timestamp, \"The poll is still occuring.\");\n        if (polls[nodeAddress].numVotesForRemove > numNodes / 2) {\n            nodes[nodeAddress].state = NodeState.Banned;\n            removeNode(nodeAddress);\n        }\n    }\n\n    // Returns Node's State which has the following fields:\n    //\n    // address nodeAddress\n    // bytes32 pubKey\n    // bytes32 certificate\n    // bytes32 ip\n    // uint256 port\n    // uint256 nonce\n    function getNodeState(address nodeAddress) public view returns(address, bytes32, bytes32, bytes32, uint256, uint256, NodeState) {\n        return (nodes[nodeAddress].addr, nodes[nodeAddress].pubKey, nodes[nodeAddress].certificate, nodes[nodeAddress].ip, nodes[nodeAddress].port, nodes[nodeAddress].nonce, nodes[nodeAddress].state);\n    }\n\n    function getNodeAddressByIndex(uint256 index) public view returns (address) {\n        return nodeIndexes[index];\n    }\n\n    function getNumNodes() public view returns(uint256) {\n        return numNodes;\n    }\n}\n",
  "sourcePath": "/Users/kevinchang/ExaSys/DHTStateTable/blockchain/contracts/DHTStateTable.sol",
  "compiler": {
    "name": "solc",
    "version": "0.5.0+commit.1d4f565a.Emscripten.clang"
  },
  "schemaVersion": "3.0.1",
  "updatedAt": "2019-02-07T05:44:06.115Z",
  "devdoc": {
    "methods": {}
  },
  "userdoc": {
    "methods": {}
  }
}